{
  "contractName": "Auction",
  "abi": [
    {
      "inputs": [],
      "payable": false,
      "stateMutability": "nonpayable",
      "type": "constructor"
    },
    {
      "anonymous": false,
      "inputs": [
        {
          "indexed": false,
          "internalType": "uint256",
          "name": "_itemId",
          "type": "uint256"
        },
        {
          "indexed": true,
          "internalType": "uint256",
          "name": "_bidAmt",
          "type": "uint256"
        }
      ],
      "name": "BidEvent",
      "type": "event"
    },
    {
      "constant": true,
      "inputs": [
        {
          "internalType": "uint256",
          "name": "",
          "type": "uint256"
        }
      ],
      "name": "arrayForItems",
      "outputs": [
        {
          "internalType": "uint256",
          "name": "",
          "type": "uint256"
        }
      ],
      "payable": false,
      "stateMutability": "view",
      "type": "function"
    },
    {
      "constant": true,
      "inputs": [
        {
          "internalType": "uint256",
          "name": "",
          "type": "uint256"
        }
      ],
      "name": "highestBidders",
      "outputs": [
        {
          "internalType": "address",
          "name": "",
          "type": "address"
        }
      ],
      "payable": false,
      "stateMutability": "view",
      "type": "function"
    },
    {
      "constant": true,
      "inputs": [],
      "name": "itemId",
      "outputs": [
        {
          "internalType": "uint256",
          "name": "",
          "type": "uint256"
        }
      ],
      "payable": false,
      "stateMutability": "view",
      "type": "function"
    },
    {
      "constant": true,
      "inputs": [
        {
          "internalType": "uint256",
          "name": "",
          "type": "uint256"
        }
      ],
      "name": "items",
      "outputs": [
        {
          "internalType": "string",
          "name": "item_name",
          "type": "string"
        },
        {
          "internalType": "string",
          "name": "item_desc",
          "type": "string"
        },
        {
          "internalType": "uint256",
          "name": "base_price",
          "type": "uint256"
        },
        {
          "internalType": "uint256",
          "name": "auction_price",
          "type": "uint256"
        },
        {
          "internalType": "uint256",
          "name": "auctionDuration",
          "type": "uint256"
        },
        {
          "internalType": "string",
          "name": "shippingDetail",
          "type": "string"
        }
      ],
      "payable": false,
      "stateMutability": "view",
      "type": "function"
    },
    {
      "constant": true,
      "inputs": [],
      "name": "getItemCount",
      "outputs": [
        {
          "internalType": "uint256",
          "name": "",
          "type": "uint256"
        }
      ],
      "payable": false,
      "stateMutability": "pure",
      "type": "function"
    },
    {
      "constant": true,
      "inputs": [
        {
          "internalType": "uint256",
          "name": "_itemId",
          "type": "uint256"
        }
      ],
      "name": "getItemName",
      "outputs": [
        {
          "internalType": "string",
          "name": "",
          "type": "string"
        }
      ],
      "payable": false,
      "stateMutability": "view",
      "type": "function"
    },
    {
      "constant": true,
      "inputs": [
        {
          "internalType": "uint256",
          "name": "_itemId",
          "type": "uint256"
        }
      ],
      "name": "getAuctionDuration",
      "outputs": [
        {
          "internalType": "uint256",
          "name": "",
          "type": "uint256"
        }
      ],
      "payable": false,
      "stateMutability": "view",
      "type": "function"
    },
    {
      "constant": true,
      "inputs": [
        {
          "internalType": "uint256",
          "name": "_itemId",
          "type": "uint256"
        }
      ],
      "name": "getItemPrice",
      "outputs": [
        {
          "internalType": "uint256",
          "name": "",
          "type": "uint256"
        }
      ],
      "payable": false,
      "stateMutability": "view",
      "type": "function"
    },
    {
      "constant": true,
      "inputs": [
        {
          "internalType": "uint256",
          "name": "_itemId",
          "type": "uint256"
        }
      ],
      "name": "getPercentIncrease",
      "outputs": [
        {
          "internalType": "uint256",
          "name": "",
          "type": "uint256"
        }
      ],
      "payable": false,
      "stateMutability": "view",
      "type": "function"
    },
    {
      "constant": true,
      "inputs": [
        {
          "internalType": "uint256",
          "name": "num",
          "type": "uint256"
        }
      ],
      "name": "getArrayOfNumericalInformation",
      "outputs": [
        {
          "internalType": "uint256[4]",
          "name": "",
          "type": "uint256[4]"
        }
      ],
      "payable": false,
      "stateMutability": "view",
      "type": "function"
    },
    {
      "constant": true,
      "inputs": [],
      "name": "getArrayOfPrices",
      "outputs": [
        {
          "internalType": "uint256[4]",
          "name": "",
          "type": "uint256[4]"
        }
      ],
      "payable": false,
      "stateMutability": "view",
      "type": "function"
    },
    {
      "constant": true,
      "inputs": [],
      "name": "getArrayOfIncreases",
      "outputs": [
        {
          "internalType": "uint256[4]",
          "name": "",
          "type": "uint256[4]"
        }
      ],
      "payable": false,
      "stateMutability": "view",
      "type": "function"
    },
    {
      "constant": true,
      "inputs": [],
      "name": "getArrayOfIncrements",
      "outputs": [
        {
          "internalType": "uint256[4]",
          "name": "",
          "type": "uint256[4]"
        }
      ],
      "payable": false,
      "stateMutability": "view",
      "type": "function"
    },
    {
      "constant": true,
      "inputs": [
        {
          "internalType": "address",
          "name": "_bidder",
          "type": "address"
        },
        {
          "internalType": "uint256",
          "name": "_itemId",
          "type": "uint256"
        }
      ],
      "name": "getPendingReturns",
      "outputs": [
        {
          "internalType": "uint256",
          "name": "",
          "type": "uint256"
        }
      ],
      "payable": false,
      "stateMutability": "view",
      "type": "function"
    },
    {
      "constant": true,
      "inputs": [
        {
          "internalType": "uint256",
          "name": "_itemId",
          "type": "uint256"
        }
      ],
      "name": "getHighestBidder",
      "outputs": [
        {
          "internalType": "address",
          "name": "",
          "type": "address"
        }
      ],
      "payable": false,
      "stateMutability": "view",
      "type": "function"
    },
    {
      "constant": true,
      "inputs": [],
      "name": "getHighestBidders",
      "outputs": [
        {
          "internalType": "address[4]",
          "name": "",
          "type": "address[4]"
        }
      ],
      "payable": false,
      "stateMutability": "view",
      "type": "function"
    },
    {
      "constant": false,
      "inputs": [
        {
          "internalType": "uint256",
          "name": "_itemId",
          "type": "uint256"
        }
      ],
      "name": "placeBid",
      "outputs": [
        {
          "internalType": "uint256",
          "name": "",
          "type": "uint256"
        }
      ],
      "payable": true,
      "stateMutability": "payable",
      "type": "function"
    },
    {
      "constant": true,
      "inputs": [
        {
          "internalType": "uint256",
          "name": "_itemId",
          "type": "uint256"
        },
        {
          "internalType": "uint256",
          "name": "_bidAmt",
          "type": "uint256"
        }
      ],
      "name": "check_bid",
      "outputs": [
        {
          "internalType": "bool",
          "name": "",
          "type": "bool"
        }
      ],
      "payable": false,
      "stateMutability": "view",
      "type": "function"
    },
    {
      "constant": true,
      "inputs": [
        {
          "internalType": "uint256",
          "name": "_itemId",
          "type": "uint256"
        },
        {
          "internalType": "address",
          "name": "person_wallet",
          "type": "address"
        }
      ],
      "name": "check_highest_bidder",
      "outputs": [
        {
          "internalType": "bool",
          "name": "",
          "type": "bool"
        }
      ],
      "payable": false,
      "stateMutability": "view",
      "type": "function"
    },
    {
      "constant": false,
      "inputs": [
        {
          "internalType": "uint256",
          "name": "_itemId",
          "type": "uint256"
        }
      ],
      "name": "withdraw",
      "outputs": [
        {
          "internalType": "bool",
          "name": "",
          "type": "bool"
        }
      ],
      "payable": true,
      "stateMutability": "payable",
      "type": "function"
    },
    {
      "constant": false,
      "inputs": [
        {
          "internalType": "uint256",
          "name": "_itemId",
          "type": "uint256"
        },
        {
          "internalType": "string",
          "name": "_shippingDetail",
          "type": "string"
        }
      ],
      "name": "submitShippingDetail",
      "outputs": [
        {
          "internalType": "bool",
          "name": "",
          "type": "bool"
        }
      ],
      "payable": false,
      "stateMutability": "nonpayable",
      "type": "function"
    },
    {
      "constant": true,
      "inputs": [
        {
          "internalType": "uint256",
          "name": "_itemId",
          "type": "uint256"
        }
      ],
      "name": "getShippingDetail",
      "outputs": [
        {
          "internalType": "string",
          "name": "",
          "type": "string"
        }
      ],
      "payable": false,
      "stateMutability": "view",
      "type": "function"
    }
  ],
  "bytecode": "0x608060405260006004553480156200001657600080fd5b50620000936040518060400160405280601281526020017f54686520416c6368656d69737420426f6f6b00000000000000000000000000008152506040518060c00160405280609181526020016200243160919139670de0b6b3a764000080603c60405180602001604052806000815250620001d960201b60201c565b620000f36040518060600160405280602d8152602001620026a3602d91396040518060c00160405280608f8152602001620024e4608f9139671bc16d674ec8000080600360405180602001604052806000815250620001d960201b60201c565b620001706040518060400160405280601d81526020017f54686520436f6d666f727420426f6f6b206279204d617474204861696700000081525060405180610100016040528060d781526020016200235a60d791396729a2241af62c000080600560405180602001604052806000815250620001d960201b60201c565b620001d3604051806060016040528060228152602001620024c2602291396040518061016001604052806101308152602001620025736101309139674563918244f4000080600a60405180602001604052806000815250620001d960201b60201c565b620003bc565b6040518060c00160405280878152602001868152602001858152602001848152602001603c8402420181526020018281525060066000600454815260200190815260200160002060008201518160000190805190602001906200023e9291906200030d565b5060208201518160010190805190602001906200025d9291906200030d565b5060408201518160020155606082015181600301556080820151816004015560a08201518160050190805190602001906200029a9291906200030d565b50905050600060076000600454815260200190815260200160002060006101000a81548173ffffffffffffffffffffffffffffffffffffffff021916908373ffffffffffffffffffffffffffffffffffffffff160217905550600460008154809291906001019190505550505050505050565b828054600181600116156101000203166002900490600052602060002090601f016020900481019282601f106200035057805160ff191683800117855562000381565b8280016001018555821562000381579182015b828111156200038057825182559160200191906001019062000363565b5b50905062000390919062000394565b5090565b620003b991905b80821115620003b55760008160009055506001016200039b565b5090565b90565b611f8e80620003cc6000396000f3fe6080604052600436106101355760003560e01c806377484aae116100ab578063c750cb791161006f578063c750cb791461085d578063ca6158cb146108d8578063d945db0b14610903578063d9561a9114610952578063eebcd73114610a06578063f662fcde14610a5557610135565b806377484aae146105815780637749cf23146105fc5780639979ef4514610627578063acad076314610669578063bfb231d2146106bc57610135565b80632e1a7d4d116100fd5780632e1a7d4d146103235780633c6f84b81461036957806349a027f61461041d5780634c4df870146104905780635d8d55c9146104df5780636739f3a41461053257610135565b80630786f3a11461013a57806319cb45e6146101a95780631c6076bb146101fc5780631e9c6386146102595780632206aa7f146102ac575b600080fd5b34801561014657600080fd5b506101936004803603604081101561015d57600080fd5b81019080803573ffffffffffffffffffffffffffffffffffffffff16906020019092919080359060200190929190505050610b3f565b6040518082815260200191505060405180910390f35b3480156101b557600080fd5b506101be610b9a565b6040518082600460200280838360005b838110156101e95780820151818401526020810190506101ce565b5050505090500191505060405180910390f35b34801561020857600080fd5b5061023f6004803603604081101561021f57600080fd5b810190808035906020019092919080359060200190929190505050610c3a565b604051808215151515815260200191505060405180910390f35b34801561026557600080fd5b5061026e610c6e565b6040518082600460200280838360005b8381101561029957808201518184015260208101905061027e565b5050505090500191505060405180910390f35b3480156102b857600080fd5b506102e5600480360360208110156102cf57600080fd5b8101908080359060200190929190505050610d19565b6040518082600460200280838360005b838110156103105780820151818401526020810190506102f5565b5050505090500191505060405180910390f35b61034f6004803603602081101561033957600080fd5b8101908080359060200190929190505050610eaa565b604051808215151515815260200191505060405180910390f35b34801561037557600080fd5b506103a26004803603602081101561038c57600080fd5b8101908080359060200190929190505050611118565b6040518080602001828103825283818151815260200191508051906020019080838360005b838110156103e25780820151818401526020810190506103c7565b50505050905090810190601f16801561040f5780820380516001836020036101000a031916815260200191505b509250505060405180910390f35b34801561042957600080fd5b506104766004803603604081101561044057600080fd5b8101908080359060200190929190803573ffffffffffffffffffffffffffffffffffffffff1690602001909291905050506111d0565b604051808215151515815260200191505060405180910390f35b34801561049c57600080fd5b506104c9600480360360208110156104b357600080fd5b810190808035906020019092919050505061124d565b6040518082815260200191505060405180910390f35b3480156104eb57600080fd5b506104f46112ef565b6040518082600460200280838360005b8381101561051f578082015181840152602081019050610504565b5050505090500191505060405180910390f35b34801561053e57600080fd5b5061056b6004803603602081101561055557600080fd5b810190808035906020019092919050505061138f565b6040518082815260200191505060405180910390f35b34801561058d57600080fd5b506105ba600480360360208110156105a457600080fd5b8101908080359060200190929190505050611431565b604051808273ffffffffffffffffffffffffffffffffffffffff1673ffffffffffffffffffffffffffffffffffffffff16815260200191505060405180910390f35b34801561060857600080fd5b50610611611464565b6040518082815260200191505060405180910390f35b6106536004803603602081101561063d57600080fd5b810190808035906020019092919050505061146d565b6040518082815260200191505060405180910390f35b34801561067557600080fd5b5061067e611746565b6040518082600460200280838360005b838110156106a957808201518184015260208101905061068e565b5050505090500191505060405180910390f35b3480156106c857600080fd5b506106f5600480360360208110156106df57600080fd5b81019080803590602001909291905050506117e6565b6040518080602001806020018781526020018681526020018581526020018060200184810384528a818151815260200191508051906020019080838360005b8381101561074f578082015181840152602081019050610734565b50505050905090810190601f16801561077c5780820380516001836020036101000a031916815260200191505b50848103835289818151815260200191508051906020019080838360005b838110156107b557808201518184015260208101905061079a565b50505050905090810190601f1680156107e25780820380516001836020036101000a031916815260200191505b50848103825285818151815260200191508051906020019080838360005b8381101561081b578082015181840152602081019050610800565b50505050905090810190601f1680156108485780820380516001836020036101000a031916815260200191505b50995050505050505050505060405180910390f35b34801561086957600080fd5b506108966004803603602081101561088057600080fd5b81019080803590602001909291905050506119ea565b604051808273ffffffffffffffffffffffffffffffffffffffff1673ffffffffffffffffffffffffffffffffffffffff16815260200191505060405180910390f35b3480156108e457600080fd5b506108ed611a27565b6040518082815260200191505060405180910390f35b34801561090f57600080fd5b5061093c6004803603602081101561092657600080fd5b8101908080359060200190929190505050611a2d565b6040518082815260200191505060405180910390f35b34801561095e57600080fd5b5061098b6004803603602081101561097557600080fd5b8101908080359060200190929190505050611a45565b6040518080602001828103825283818151815260200191508051906020019080838360005b838110156109cb5780820151818401526020810190506109b0565b50505050905090810190601f1680156109f85780820380516001836020036101000a031916815260200191505b509250505060405180910390f35b348015610a1257600080fd5b50610a3f60048036036020811015610a2957600080fd5b8101908080359060200190929190505050611b80565b6040518082815260200191505060405180910390f35b348015610a6157600080fd5b50610b2560048036036040811015610a7857600080fd5b810190808035906020019092919080359060200190640100000000811115610a9f57600080fd5b820183602082011115610ab157600080fd5b80359060200191846001830284011164010000000083111715610ad357600080fd5b91908080601f016020809104026020016040519081016040528093929190818152602001838380828437600081840152601f19601f820116905080830192505050505050509192919290505050611bd5565b604051808215151515815260200191505060405180910390f35b6000600560008473ffffffffffffffffffffffffffffffffffffffff1673ffffffffffffffffffffffffffffffffffffffff168152602001908152602001600020600083815260200190815260200160002054905092915050565b610ba2611dd6565b3073ffffffffffffffffffffffffffffffffffffffff16632206aa7f60036040518263ffffffff1660e01b81526004018082815260200191505060806040518083038186803b158015610bf457600080fd5b505afa158015610c08573d6000803e3d6000fd5b505050506040513d601f19601f820116820180604052506080811015610c2d57600080fd5b8101908091905050905090565b60006006600084815260200190815260200160002060030154821115610c635760019050610c68565b600090505b92915050565b610c76611df8565b610c7e611df8565b60008090505b6004811015610d11576007600082815260200190815260200160002060009054906101000a900473ffffffffffffffffffffffffffffffffffffffff16828260048110610ccd57fe5b602002019073ffffffffffffffffffffffffffffffffffffffff16908173ffffffffffffffffffffffffffffffffffffffff16815250508080600101915050610c84565b508091505090565b610d21611dd6565b610d29611dd6565b60008090505b6004811015610ea0576001841415610de7573073ffffffffffffffffffffffffffffffffffffffff16634c4df870826040518263ffffffff1660e01b81526004018082815260200191505060206040518083038186803b158015610d9257600080fd5b505afa158015610da6573d6000803e3d6000fd5b505050506040513d6020811015610dbc57600080fd5b8101908080519060200190929190505050828260048110610dd957fe5b602002018181525050610e93565b6002841415610e92573073ffffffffffffffffffffffffffffffffffffffff1663eebcd731826040518263ffffffff1660e01b81526004018082815260200191505060206040518083038186803b158015610e4157600080fd5b505afa158015610e55573d6000803e3d6000fd5b505050506040513d6020811015610e6b57600080fd5b8101908080519060200190929190505050828260048110610e8857fe5b6020020181815250505b5b8080600101915050610d2f565b5080915050919050565b600080600560003373ffffffffffffffffffffffffffffffffffffffff1673ffffffffffffffffffffffffffffffffffffffff168152602001908152602001600020600084815260200190815260200160002054905060006007600085815260200190815260200160002060009054906101000a900473ffffffffffffffffffffffffffffffffffffffff1690508073ffffffffffffffffffffffffffffffffffffffff163373ffffffffffffffffffffffffffffffffffffffff161415611013576000600560003373ffffffffffffffffffffffffffffffffffffffff1673ffffffffffffffffffffffffffffffffffffffff1681526020019081526020016000206000868152602001908152602001600020819055506040517f08c379a0000000000000000000000000000000000000000000000000000000008152600401808060200182810382526022815260200180611ee66022913960400191505060405180910390fd5b600082111561110c576000600560003373ffffffffffffffffffffffffffffffffffffffff1673ffffffffffffffffffffffffffffffffffffffff1681526020019081526020016000206000868152602001908152602001600020819055503373ffffffffffffffffffffffffffffffffffffffff166108fc839081150290604051600060405180830381858888f1935050505061110b5781600560003373ffffffffffffffffffffffffffffffffffffffff1673ffffffffffffffffffffffffffffffffffffffff168152602001908152602001600020600086815260200190815260200160002081905550600092505050611113565b5b6001925050505b919050565b6060600660008381526020019081526020016000206005018054600181600116156101000203166002900480601f0160208091040260200160405190810160405280929190818152602001828054600181600116156101000203166002900480156111c45780601f10611199576101008083540402835291602001916111c4565b820191906000526020600020905b8154815290600101906020018083116111a757829003601f168201915b50505050509050919050565b60006007600084815260200190815260200160002060009054906101000a900473ffffffffffffffffffffffffffffffffffffffff1673ffffffffffffffffffffffffffffffffffffffff168273ffffffffffffffffffffffffffffffffffffffff1614156112425760009050611247565b600190505b92915050565b600080821015801561125f5750600482105b6112d1576040517f08c379a00000000000000000000000000000000000000000000000000000000081526004018080602001828103825260138152602001807f4974656d20646f6573206e6f742065786973740000000000000000000000000081525060200191505060405180910390fd5b60066000838152602001908152602001600020600301549050919050565b6112f7611dd6565b3073ffffffffffffffffffffffffffffffffffffffff16632206aa7f60016040518263ffffffff1660e01b81526004018082815260200191505060806040518083038186803b15801561134957600080fd5b505afa15801561135d573d6000803e3d6000fd5b505050506040513d601f19601f82011682018060405250608081101561138257600080fd5b8101908091905050905090565b60008082101580156113a15750600482105b611413576040517f08c379a00000000000000000000000000000000000000000000000000000000081526004018080602001828103825260138152602001807f4974656d20646f6573206e6f742065786973740000000000000000000000000081525060200191505060405180910390fd5b60066000838152602001908152602001600020600401549050919050565b60076020528060005260406000206000915054906101000a900473ffffffffffffffffffffffffffffffffffffffff1681565b60006004905090565b600080349050600083101580156114845750600483105b6114f6576040517f08c379a000000000000000000000000000000000000000000000000000000000815260040180806020018281038252601a8152602001807f42696464696e67206f6e20616e20696e76616c6964206974656d00000000000081525060200191505060405180910390fd5b6114ff8361138f565b4210611573576040517f08c379a00000000000000000000000000000000000000000000000000000000081526004018080602001828103825260158152602001807f7468652061756374696f6e2068616420656e646564000000000000000000000081525060200191505060405180910390fd5b61157d8382610c3a565b6115d2576040517f08c379a000000000000000000000000000000000000000000000000000000000815260040180806020018281038252602e815260200180611f2c602e913960400191505060405180910390fd5b6115dc83336111d0565b611631576040517f08c379a0000000000000000000000000000000000000000000000000000000008152600401808060200182810382526024815260200180611f086024913960400191505060405180910390fd5b806006600085815260200190815260200160002060030181905550336007600085815260200190815260200160002060006101000a81548173ffffffffffffffffffffffffffffffffffffffff021916908373ffffffffffffffffffffffffffffffffffffffff160217905550600081146117055780600560003373ffffffffffffffffffffffffffffffffffffffff1673ffffffffffffffffffffffffffffffffffffffff1681526020019081526020016000206000858152602001908152602001600020600082825401925050819055505b807f7b0140573d213f42228ee5bf51487a8b9a9e85e0f8d61506811f7af74afcddc8846040518082815260200191505060405180910390a282915050919050565b61174e611dd6565b3073ffffffffffffffffffffffffffffffffffffffff16632206aa7f60026040518263ffffffff1660e01b81526004018082815260200191505060806040518083038186803b1580156117a057600080fd5b505afa1580156117b4573d6000803e3d6000fd5b505050506040513d601f19601f8201168201806040525060808110156117d957600080fd5b8101908091905050905090565b6006602052806000526040600020600091509050806000018054600181600116156101000203166002900480601f0160208091040260200160405190810160405280929190818152602001828054600181600116156101000203166002900480156118925780601f1061186757610100808354040283529160200191611892565b820191906000526020600020905b81548152906001019060200180831161187557829003601f168201915b505050505090806001018054600181600116156101000203166002900480601f0160208091040260200160405190810160405280929190818152602001828054600181600116156101000203166002900480156119305780601f1061190557610100808354040283529160200191611930565b820191906000526020600020905b81548152906001019060200180831161191357829003601f168201915b505050505090806002015490806003015490806004015490806005018054600181600116156101000203166002900480601f0160208091040260200160405190810160405280929190818152602001828054600181600116156101000203166002900480156119e05780601f106119b5576101008083540402835291602001916119e0565b820191906000526020600020905b8154815290600101906020018083116119c357829003601f168201915b5050505050905086565b60006007600083815260200190815260200160002060009054906101000a900473ffffffffffffffffffffffffffffffffffffffff169050919050565b60045481565b60008160048110611a3a57fe5b016000915090505481565b606060008210158015611a585750600482105b611aca576040517f08c379a00000000000000000000000000000000000000000000000000000000081526004018080602001828103825260138152602001807f4974656d20646f6573206e6f742065786973740000000000000000000000000081525060200191505060405180910390fd5b600660008381526020019081526020016000206000018054600181600116156101000203166002900480601f016020809104026020016040519081016040528092919081815260200182805460018160011615610100020316600290048015611b745780601f10611b4957610100808354040283529160200191611b74565b820191906000526020600020905b815481529060010190602001808311611b5757829003601f168201915b50505050509050919050565b6000806006600084815260200190815260200160002060030154905060006006600085815260200190815260200160002060020154905060008160648385030281611bc757fe5b049050809350505050919050565b60008060066000858152602001908152602001600020600301549050600073f528bb55c1c0be10c23d5b311f6cd652116b10f89050611c138561138f565b421015611c88576040517f08c379a00000000000000000000000000000000000000000000000000000000081526004018080602001828103825260198152602001807f7468652061756374696f6e206e6f7420656e646564207965740000000000000081525060200191505060405180910390fd5b611c91856119ea565b73ffffffffffffffffffffffffffffffffffffffff163373ffffffffffffffffffffffffffffffffffffffff161415611d7f5783600660008781526020019081526020016000206005019080519060200190611cee929190611e1a565b506000821115611d7457600060066000878152602001908152602001600020600301819055508073ffffffffffffffffffffffffffffffffffffffff166108fc839081150290604051600060405180830381858888f19350505050611d69578160066000878152602001908152602001600020600301819055505b600092505050611dd0565b600192505050611dd0565b6040517f08c379a0000000000000000000000000000000000000000000000000000000008152600401808060200182810382526026815260200180611ec06026913960400191505060405180910390fd5b92915050565b6040518060800160405280600490602082028038833980820191505090505090565b6040518060800160405280600490602082028038833980820191505090505090565b828054600181600116156101000203166002900490600052602060002090601f016020900481019282601f10611e5b57805160ff1916838001178555611e89565b82800160010185558215611e89579182015b82811115611e88578251825591602001919060010190611e6d565b5b509050611e969190611e9a565b5090565b611ebc91905b80821115611eb8576000816000905550600101611ea0565b5090565b9056fe796f7520617265206e6f74207468652077696e6e6572206f6620746869732061756374696f6e796f7520617265207468652077696e6e6572206f6620746869732061756374696f6e506572736f6e2062696464696e6720697320746865206869676865737420626964646572426964206973206c6f776572206f7220657175616c20746f207468652068696768657374206269642076616c7565a265627a7a72315820b51f4e445c9b3f6e9a4e3b815aedf67d7875e5a9dc59d94fa37be2e796974cff64736f6c63430005100032546865206e65772075706c696674696e6720626f6f6b2066726f6d204d61747420486169672c20746865204e657720596f726b2054696d6573206265737473656c6c696e6720617574686f72206f6620546865204d69646e69676874204c6962726172792c20666f7220616e796f6e6520696e20736561726368206f6620686f70652c206c6f6f6b696e6720666f722061207061746820746f2061206d6f7265206d65616e696e6766756c206c6966652c206f7220696e206e656564206f662061206c6974746c6520656e636f75726167656d656e742e5061756c6f20436f656c686f2773206d617374657270696563652074656c6c7320746865206d7973746963616c2073746f7279206f662053616e746961676f2c20616e20416e64616c757369616e20736865706865726420626f792077686f20796561726e7320746f2074726176656c20696e20736561726368206f66206120776f726c646c792074726561737572652e416972204a6f7264616e2031203a20536861747465726564204261636b626f6172645468697320414a312073686f6520697320616e206561726c792070726f746f747970652066726f6d204e696b6520666f72204d69636861656c204a6f7264616e20746f207765617220647572696e67206261736b657462616c6c2067616d65732e20546865207465726d2069732027546865204d6f74686572206f6620546865204a6f7264616e2053686f6573272e73686f657320776f726e206279204d69636861656c204a6f7264616e20696e206120667269656e646c79206d6174636820686f73746564206279204e696b652e2054686573652073686f65732077657265207573656420696e2061206d6f6d656e7420746861742077617320626f74682073686f636b696e6720616e6420616d617a696e67207768656e204d4a20646964206120736c616d2064756e6b206861726420656e6f75676820746f20627265616b20746865206261636b626f6172642072696e672e2054686573652073686f6573206265636f6d65206d656d6f7269657320666f7220756e666f726765747461626c65206d6f6d656e747320666f72206576657279206261736b657462616c6c2066616e2077686f207769746e6573736564206174207468652074696d652e4e696b652053686f657320416972204a6f7264616e2031203a2050726f746f747970652047616d652d776f726e",
  "source": "\r\n// SPDX-License-Identifier\r\npragma solidity ^0.5.0;\r\n\r\ncontract Auction {\r\n\r\n    //Item Array\r\n\tstruct Item{\t\t\t\r\n\t\tstring item_name; // name\r\n\t\tstring item_desc; // description\r\n\t\tuint base_price; // start price\r\n\t\tuint auction_price;  // current price of item\r\n        uint auctionDuration;\r\n        string shippingDetail;\r\n\t}\r\n\t\r\n\r\n    // global variabel to count the auction\r\n\tuint constant itemCount = 4;\r\n    uint[itemCount] public arrayForItems;\r\n\tuint public itemId = 0;\r\n\r\n    // mapping pending return so the bidder can withdraw their eth\r\n\tmapping(address => mapping(uint=>uint)) private pendingReturns;\r\n\r\n\t// auction item mapping\r\n    mapping(uint => Item) public items; \r\n\r\n\t// highest bidder mapping\r\n\tmapping(uint => address) public highestBidders; \r\n\r\n    \r\n\r\n\t// to trigger bid function everytime user place a bid\r\n\tevent BidEvent(uint _itemId, uint indexed _bidAmt);\r\n\r\n\r\n\t// (price convert from wei to ether) 1 ether = 1.000.000.000.000.000.000 wei \r\n\tconstructor() public {\t\r\n\t\taddItem(\"The Alchemist Book\", \"Paulo Coelho's masterpiece tells the mystical story of Santiago, an Andalusian shepherd boy who yearns to travel in search of a worldly treasure.\", 1000000000000000000, 1000000000000000000,60, \"\");\r\n\t\taddItem(\"Nike Shoes Air Jordan 1 : Prototype Game-worn\", \"This AJ1 shoe is an early prototype from Nike for Michael Jordan to wear during basketball games. The term is 'The Mother of The Jordan Shoes'.\", 2000000000000000000,  2000000000000000000,3, \"\");\r\n\t\taddItem(\"The Comfort Book by Matt Haig\", \"The new uplifting book from Matt Haig, the New York Times bestselling author of The Midnight Library, for anyone in search of hope, looking for a path to a more meaningful life, or in need of a little encouragement.\", 3000000000000000000,  3000000000000000000,5, \"\");\r\n\t\taddItem(\"Air Jordan 1 : Shattered Backboard\", \"shoes worn by Michael Jordan in a friendly match hosted by Nike. These shoes were used in a moment that was both shocking and amazing when MJ did a slam dunk hard enough to break the backboard ring. These shoes become memories for unforgettable moments for every basketball fan who witnessed at the time.\", 5000000000000000000,  5000000000000000000, 10, \"\");\r\n\t}\r\n\t\r\n\t//startPrice = current auctionPrice\r\n    // (itemCount starts at 0)\r\n\tfunction addItem (string memory _name, string memory _desc, uint _baseValue,  uint _auctionPrice, uint _auctionDuration, string memory _shippingDetail) private { \t\r\n\t\titems[itemId] = Item(_name, _desc, _baseValue, _auctionPrice, (block.timestamp + (_auctionDuration*60)), _shippingDetail);\r\n\t\thighestBidders[itemId] = address(0);\r\n\t\titemId ++;\r\n\t}\r\n\r\n\r\n\t// Function to get item count\r\n\tfunction getItemCount () public pure returns (uint) {\r\n\t\treturn itemCount;\r\n\t}\r\n\t\r\n\r\n\t// Function to get the name \r\n\tfunction getItemName (uint _itemId) public view returns (string memory) {\r\n\t\trequire(_itemId >= 0 && _itemId < itemCount, \"Item does not exist\"); // the item id must be greater than 0 but less or equal to the total count\r\n\r\n\t\treturn items[_itemId].item_name;\r\n\t}\r\n\r\n    \t// Function to get auction duration \r\n\tfunction getAuctionDuration (uint _itemId) public view returns (uint) {\r\n\t\trequire(_itemId >= 0 && _itemId < itemCount, \"Item does not exist\"); // the item id must be greater than 0 but less or equal to the total count\r\n\r\n\t\treturn items[_itemId].auctionDuration;\r\n\t}\r\n\r\n\r\n\t// Function to get the highest current bid\r\n\tfunction getItemPrice (uint _itemId) public view returns (uint) {\r\n\t\trequire(_itemId >= 0 && _itemId < itemCount, \"Item does not exist\"); // the item id must be greater than 0 but less or equal to the total count\r\n\r\n\t\treturn items[_itemId].auction_price;\r\n\t}\r\n\r\n\r\n\t// Function to get percent increase in value over original listing price\r\n\tfunction getPercentIncrease (uint _itemId) public view returns (uint) {\r\n\t\tuint auctionPrice = items[_itemId].auction_price;\r\n\t\tuint basePrice = items[_itemId].base_price;\r\n\t\tuint percentIncrease = (auctionPrice - basePrice)*100/basePrice;\r\n\r\n\t\treturn percentIncrease;\r\n\t}\r\n\t\r\n\r\n\t// Function to get numerical information for all items in the auction as an array\r\n\tfunction getArrayOfNumericalInformation (uint num) public view returns (uint[itemCount] memory) {\r\n\t\tuint[itemCount] memory arrayOfNumbers;\r\n\r\n\t\tfor (uint i=0;i < itemCount; i++) {\r\n\t\t\tif (num == 1) {\r\n\t\t\t\tarrayOfNumbers[i] = this.getItemPrice(i);\r\n\t\t\t} else if (num == 2) {\r\n\t\t\t\tarrayOfNumbers[i] = this.getPercentIncrease(i);\r\n\t\t\t} \r\n\t\t}\r\n\r\n\t\treturn arrayOfNumbers;\r\n\t}\r\n\t\r\n\r\n\r\n\t// Function to get array of prices of all items in auction as an array\r\n\tfunction getArrayOfPrices () public view returns (uint[itemCount] memory) {\r\n\t\treturn this.getArrayOfNumericalInformation(1);\r\n\t}\r\n\r\n\r\n\t// Function to get array of increase in percentages of all items in auction as an array\r\n\tfunction getArrayOfIncreases () public view returns (uint[itemCount] memory) {\r\n\t\treturn this.getArrayOfNumericalInformation(2);\r\n\t}\r\n\r\n\r\n\t// Function to get array of increments of all items in auction as an array\r\n\tfunction getArrayOfIncrements () public view returns (uint[itemCount] memory) {\r\n\t\treturn this.getArrayOfNumericalInformation(3);\r\n\t}\r\n\r\n\t// function to get pending returns\r\n\tfunction getPendingReturns(address _bidder,uint _itemId) external view returns(uint){\r\n        return pendingReturns[_bidder][_itemId];\r\n    }\r\n\r\n\t//function get highest bidder (not in array)\r\n\tfunction getHighestBidder(uint _itemId) public view returns(address) {\r\n      return highestBidders[_itemId];\r\n\t}\r\n\r\n\t// Function to get the array of highest bidders\r\n\tfunction getHighestBidders () public view returns (address[itemCount] memory) {\r\n\t\taddress[itemCount] memory arrayOfBidders;\r\n\r\n\t\tfor (uint i=0;i < itemCount; i++) {\r\n\t\t\tarrayOfBidders[i] = highestBidders[i];\r\n\t\t}\r\n\r\n\t\treturn arrayOfBidders;\r\n\r\n\t}\r\n\t\r\n\t\r\n    // Function to place a bid\r\n    function placeBid (uint _itemId) public payable returns (uint) {\r\n\r\n        uint _bidAmt = msg.value;\r\n        // Requirements \r\n\t\trequire(_itemId >= 0 && _itemId < itemCount, \"Bidding on an invalid item\"); \r\n\t\t\r\n\t\trequire(block.timestamp < getAuctionDuration(_itemId), \"the auction had ended\");\r\n\r\n        require(check_bid (_itemId, _bidAmt),\"Bid is lower or equal to the highest bid value\"); \r\n\t\t\r\n\t\trequire(check_highest_bidder(_itemId, msg.sender), \"Person bidding is the highest bidder\");\r\n\r\n        items[_itemId].auction_price = _bidAmt; \r\n\t\thighestBidders[_itemId] = msg.sender; \r\n\r\n         //funds mapping so the user can get his money back when he lost\r\n        if (_bidAmt != 0){\r\n           pendingReturns[msg.sender][_itemId] += _bidAmt;\r\n        }\r\n\r\n        emit BidEvent(_itemId, _bidAmt); \r\n\r\n        return _itemId; // return the item back \t\r\n\r\n    }\r\n\r\n\r\n    // Function to check if the bid is greater than highest bid\r\n\tfunction check_bid (uint _itemId, uint _bidAmt) public view returns (bool) {\r\n\t\tif (_bidAmt > items[_itemId].auction_price) return true;\r\n\t\telse return false;\r\n\t}\r\n\r\n\t\r\n\r\n\t// Function to check if person bidding is the highest bidder\r\n\tfunction check_highest_bidder (uint _itemId, address person_wallet) public view returns (bool) {\r\n\t\tif (person_wallet == highestBidders[_itemId]) {\r\n\t\t\treturn false;\r\n\t\t} else {\r\n\t\t\treturn true;\r\n\t\t}\r\n\t}\r\n\r\n\t// function to withdraw eth\r\n    function withdraw(uint _itemId) public payable returns(bool){\r\n       \tuint amount = pendingReturns[msg.sender][_itemId];\r\n        address winner = highestBidders[_itemId];\r\n\t\t\r\n\r\n        if(msg.sender == winner){\r\n            pendingReturns[msg.sender][_itemId] = 0;\r\n            revert(\"you are the winner of this auction\");\r\n        }\r\n        \r\n        // make the pending returns to 0 everytime user click withdraw (avoid DAO)\r\n        if(amount > 0){\r\n            pendingReturns[msg.sender][_itemId] = 0;\r\n         \r\n            //if fail to sending money back\r\n            if(!(msg.sender).send(amount)){\r\n                pendingReturns[msg.sender][_itemId] = amount; //the money will back to the amount container\r\n                return false;\r\n            }\r\n        }\r\n        return true;\r\n    }\r\n\r\n     // stored shipping detail\r\n    function submitShippingDetail(uint _itemId, string memory _shippingDetail) public returns(bool) {\r\n\r\n\t\tuint winnerAmount = items[_itemId].auction_price;\r\n\r\n\t\t// init address juru lelang\r\n\t\taddress payable auctioneerAddress = 0xF528bb55c1c0BE10c23D5b311F6cd652116B10F8;\r\n\t\t\r\n\t\trequire(block.timestamp >= getAuctionDuration(_itemId), \"the auction not ended yet\");\r\n\r\n\t\tif (msg.sender == getHighestBidder(_itemId)){\r\n              // shippingDetail = _shippingDetail;\r\n        \titems[_itemId].shippingDetail = _shippingDetail;\r\n\r\n\t\t\tif(winnerAmount > 0){\r\n            \titems[_itemId].auction_price = 0;\r\n         \t\t\r\n            \t//if fail to sending money back\r\n            \tif(!(auctioneerAddress).send(winnerAmount)){\r\n                \titems[_itemId].auction_price = winnerAmount; //the money will back to the amount container\r\n           \t \t}\r\n\t\t\t\treturn false;\r\n\r\n\t\t \t}\r\n\t\t\treturn true;\r\n        }\r\n\t\telse{\r\n\t\t\trevert(\"you are not the winner of this auction\");\r\n\t\t}\r\n\r\n    }\r\n\r\n    // return value of shipping detail\r\n    function getShippingDetail(uint _itemId) public view returns (string memory){\r\n\r\n        return items[_itemId].shippingDetail;\r\n    }\r\n\r\n\r\n}",
  "sourcePath": "/Users/adityas/Desktop/testAuction2/AuctionHouse/contracts/Auction.sol",
  "compiler": {
    "name": "solc",
    "version": "0.5.16+commit.9c3226ce.Emscripten.clang"
  },
  "schemaVersion": "3.4.8",
  "updatedAt": "2022-07-27T09:09:24.018Z",
  "networkType": "ethereum",
  "devdoc": {
    "methods": {}
  },
  "userdoc": {
    "methods": {}
  }
}